:100000000C9472000C949A000C949A000C949A0030
:100010000C949A000C949A000C949A000C949A00F8
:100020000C949A000C949A000C949A000C949A00E8
:100030000C949A000C949A000C949A000C949A00D8
:100040000C9497070C949A000C9465070C943F0746
:100050000C949A000C949A000C949A000C949A00B8
:100060000C949A000C949A00005EBCE2613FDD8320
:10007000C29C7E20A3FD1F41009D23BE46DB65F888
:100080008C11AF32CA57E974000000002400270029
:100090002A0000000000250028002B0000000008B6
:1000A000000201000003040700000000000000003F
:1000B00000000000230026002900040404040404B6
:1000C0000404020202020202030303030303010207
:1000D00004081020408001020408102001020408D6
:1000E0001020E10711241FBECFEFD8E0DEBFCDBF47
:1000F00011E0A0E0B1E0E0EBFAE102C005900D9262
:10010000A036B107D9F722E0A0E6B1E001C01D9208
:10011000A834B207E1F710E0C2E7D0E004C02197AD
:10012000FE010E94500DC137D107C9F70E94720825
:100130000C94560D0C940000E1E7F1E0A089B18920
:1001400082E08C93A485B5851C92A685B7858FEC3B
:100150008C93108EA489B58986E08C93A289B3898B
:100160008C9180618C93A289B3898C9188608C93E7
:10017000A289B3898C9180688C930288F389E02DE1
:1001800080818F7D80830895AF92BF92CF92DF925E
:10019000EF92FF920F931F93CF93DF936C017B013C
:1001A0008B01040F151FEB015E01AE18BF08C017CD
:1001B000D10759F06991D601ED91FC910190F08140
:1001C000E02DC6010995892B79F7C501DF91CF9103
:1001D0001F910F91FF90EF90DF90CF90BF90AF9065
:1001E0000895FC01538D448D252F30E0842F90E03D
:1001F000821B930B541710F0CF9608950197089522
:10020000FC01918D828D981761F0A28DAE0FBF2FEA
:10021000B11D5D968C91928D9F5F9F73928F90E040
:1002200008958FEF9FEF0895FC01918D828D9817AF
:1002300031F0828DE80FF11D858D90E008958FEFEC
:100240009FEF0895FC01918D228D892F90E0805CB5
:100250009F4F821B91098F739927089581E791E041
:100260000E94220121E0892B09F420E0822F0895C9
:1002700080E090E0892B29F00E942E0181110C94DE
:1002800000000895FC01A48DA80FB92FB11DA35A39
:10029000BF4F2C91848D90E001968F739927848FA6
:1002A000A689B7892C93A089B1898C9183708064C9
:1002B0008C93938D848D981306C00288F389E02D6A
:1002C00080818F7D80830895EF92FF920F931F931B
:1002D000CF93DF93EC0181E0888F9B8D8C8D9813F9
:1002E0001AC0E889F989808185FF15C09FB7F89405
:1002F000EE89FF896083E889F98980818370806451
:1003000080839FBF81E090E0DF91CF911F910F919B
:10031000FF90EF900895F62E0B8D10E00F5F1F4FAA
:100320000F731127E02E8C8D8E110CC00FB607FCB9
:10033000FACFE889F989808185FFF5CFCE010E9447
:100340004201F1CFEB8DEC0FFD2FF11DE35AFF4F72
:10035000F0829FB7F8940B8FEA89FB8980818062D5
:10036000CFCFCF93DF93EC01888D8823B9F0AA8992
:10037000BB89E889F9898C9185FD03C0808186FD60
:100380000DC00FB607FCF7CF8C9185FFF2CF8081AF
:1003900085FFEDCFCE010E944201E9CFDF91CF91E1
:1003A000089590E0FC01E456FF4F2491FC01E253D4
:1003B000FF4F3491FC01E654FF4FE491EE23C9F066
:1003C000222339F0233001F1A8F4213019F1223031
:1003D00029F1F0E0EE0FFF1FEE56FF4FA591B4910B
:1003E0008FB7F894EC91611126C030953E233C9371
:1003F0008FBF08952730A9F02830C9F0243049F77D
:10040000809180008F7D03C0809180008F778093E2
:100410008000DFCF84B58F7784BDDBCF84B58F7D3F
:10042000FBCF8091B0008F778093B000D2CF8091C6
:10043000B0008F7DF9CF3E2BDACFCF93DF9390E0E2
:10044000FC01E253FF4F249186549F4FFC0184919D
:100450008823D1F090E0880F991FFC01E857FF4FE7
:10046000A591B491FC01EE56FF4FC591D491611155
:100470000EC09FB7F8948C91E22FE0958E238C9359
:100480002881E223E8839FBFDF91CF9108958FB742
:10049000F894EC91E22BEC938FBFF6CF3FB7F89432
:1004A0008091610190916201A0916301B09164011A
:1004B00026B5A89B05C02F3F19F00196A11DB11DBF
:1004C0003FBFBA2FA92F982F8827BC01CD01620FFB
:1004D000711D811D911D42E0660F771F881F991FB6
:1004E0004A95D1F708958F929F92AF92BF92CF9283
:1004F000DF92EF92FF926B017C010E944E024B0152
:100500005C01C114D104E104F104B9F00E944E026F
:10051000681979098A099B09683E7340810591052C
:1005200080F321E0C21AD108E108F10888EE880EB4
:1005300083E0981EA11CB11CE4CFFF90EF90DF90E8
:10054000CF90BF90AF909F908F900895DC0180E096
:10055000615090F09D919827E92FEF70F0E0E859F5
:10056000FF4F2491E92FE295EF70F0E0E858FF4F3C
:10057000E491822F8E27ECCF0895DC012C91119607
:10058000ED91FC91F8948181822B81839281322FAD
:1005900030959323928387E090E00197F1F7818172
:1005A0008323818383E290E00197F1F7908178942F
:1005B000EFECF0E03197F1F7922381E009F480E06D
:1005C0000895FC0190810180F281E02D292F209572
:1005D00060FF14C0F8948281822382838181892BF9
:1005E0008183A3E2B0E01197F1F78281982B928387
:1005F000789487ED90E00197F1F70895F89482815F
:10060000822382838181892B8183AFEFB0E01197B0
:10061000F1F78281982B928378948FE090E0EBCF72
:10062000DF92EF92FF920F931F93CF93DF93EC0132
:10063000D62EE42E08E010E0FF24F39461E08D2D27
:100640008F2109F460E0CE010E94E102FF0C01500D
:100650001109A1F7E11010C0F894E981FA819181A4
:100660008881809589238183E981FA8192818881BB
:100670008095892382837894DF91CF911F910F9188
:10068000FF90EF90DF900895EF92FF920F931F93EA
:10069000CF93DF938C017B0140E065E50E9410035E
:1006A000E70188E0E80EF11C699140E0C8010E9472
:1006B0001003CE15DF05C1F7DF91CF911F910F9188
:1006C000FF90EF900895FC0190810180F281E02D70
:1006D000F8948181292F20958223818378943DE7A6
:1006E00043E050E0315029F1DA011197F1F78081B0
:1006F0008923C1F3F8948281822382838181892BAB
:1007000081837894ABE7B7E01197F1F7F894818192
:1007100082238183A3E1B1E01197F1F780819823CF
:1007200081E009F080E07894E3E6F6E03197F1F7B4
:10073000089580E00895AF92BF92CF92DF92EF923A
:10074000FF920F931F93CF93DF938B01BC01809196
:100750002C0290912D020E94440340E06EEB8091A8
:100760002C0290912D020E941003E801680189E09B
:10077000C80ED11CA0902C02B0902D0288E0E82E6B
:10078000F12C10E001E0C5010E94BD028111102B87
:10079000000F81E0E81AF108B1F71993CC16DD06D5
:1007A00049F780912C0290912D020E94630391E001
:1007B000813009F090E0892FDF91CF911F910F9147
:1007C000FF90EF90DF90CF90BF90AF9008950F9380
:1007D0001F93CF93DF93CDB7DEB729970FB6F89469
:1007E000DEBF0FBECDBF8C0180912C0290912D02F7
:1007F0000E946303811102C080E01FC0BE016F5FD1
:100800007F4FC8010E949B038823B1F368E0CE01AB
:1008100001960E94A60299858913EECF8D818F33B0
:10082000B9F020F48F3141F789E007C08F3521F00E
:100830008F3711F78CE001C08BE029960FB6F89442
:10084000DEBF0FBECDBFDF91CF911F910F910895F5
:100850008AE0F3CF089590E080E00895BF92CF92B0
:10086000DF92EF92FF920F931F93CF93DF93EC01F0
:10087000B62EC72E8D85811105C0CE010E9463035F
:1008800081110EC01B861D861C8680E0DF91CF91F2
:100890001F910F91FF90EF90DF90CF90BF90089540
:1008A00040E060EFCE010E94100301E0E12CD12C6A
:1008B00011E0CE010E94BD02F82ECE010E94BD02C1
:1008C00091E0F91218C0813099F51134D8F2DB8625
:1008D000D11002C081E08D878B81882399F2239605
:1008E000EB2DFC2DCF01089629912193E817F907EC
:1008F000D9F781E0CBCFEE2DF0E0F8120FC08B8559
:100900001817A0F4DE01AE0FBF1F13968C91802341
:1009100079F4F12C193008F41C87D12EEC0FFD1F4F
:100920008381902F9095892383830AC08113F1CF0F
:10093000FE01EE0DF11D8381802B8383FF24F39450
:100940006F2DCE010E94E1021F5F000F11F4E394AE
:1009500001E087E08E1508F0ACCFB7CFCF93DF93DF
:10096000EC0160E08E810E94D10161E08E810E94E5
:10097000D10160E08E810E94D1018BE891E0019766
:10098000F1F7DF91CF910895CF92DF92EF92FF922E
:100990000F931F93CF93DF936C017C0187E0E80EE8
:1009A000F11CD0E0C0E0062F10E0B8010C2E02C010
:1009B000759567950A94E2F76170F70181917F015F
:1009C0000E94D1012196C430D10579F7C601DF918B
:1009D000CF911F910F91FF90EF90DF90CF900C94EB
:1009E000AE04CF92DF92EF92FF920F931F93CF93BB
:1009F000DF93EC01F62E642F8C810E94D1018D8152
:100A00008F3F19F060E00E94D1010F2D10E08F851B
:100A100084FF25C06E0187E0C80ED11CF12CE12CAB
:100A2000B8010E2C02C0759567950A94E2F76170C3
:100A3000F60181916F010E94D101FFEFEF1AFF0AC9
:100A400088E0E816F10461F7CE01DF91CF911F91A4
:100A50000F91FF90EF90DF90CF900C94AE04B8010F
:100A600084E0759567958A95E1F7CE010E94C404EC
:100A70006F2DCE01DF91CF911F910F91FF90EF90DD
:100A8000DF90CF900C94C40440E0682F8EE092E099
:100A90000C94F104CF93DF93823029F490911D02DE
:100AA000986090931D02809321021092220280E4AC
:100AB0008093230280E18093240280E580932502C5
:100AC00061E0809112020E941D02809113028F3F0B
:100AD00019F061E00E941D0261E0809114020E9401
:100AE0001D02CEE0D2E09E012E50324080911D02C8
:100AF00084FD0BC084E090E021962817390744F468
:100B000061E08E810E941D02EECF88E090E0F4CF7C
:100B10008BE39DE00197F1F760E0809112020E9463
:100B2000D10160E0809114020E94D10180911302F2
:100B30008F3F19F060E00E94D10180911D0284FD79
:100B400039C063E08EE092E00E94C404CBE4D6E4B6
:100B5000CE010197F1F763E08EE092E00E94C404B9
:100B60002197F1F763E08EE092E00E94C40483E5F0
:100B700092E00197F1F762E08EE092E00E94C404F7
:100B800080911D0280620E94440584E080931E02D1
:100B90008CE00E94440581E00E9444058BE39FE1C4
:100BA0000197F1F782E080931F0286E0DF91CF91F9
:100BB0000C94440580620E9444058BE496E40197FE
:100BC000F1F780911D0280620E94440583E592E066
:100BD0000197F1F780911D0280620E944405D0CFF9
:100BE00041E00E94F10481E090E00895FB01019052
:100BF0000020E9F73197AF01461B570BDC01ED915F
:100C0000FC910280F381E02D09948F929F92AF9224
:100C1000BF92EF92FF920F931F93CF93DF93CDB7C5
:100C2000DEB7A1970FB6F894DEBF0FBECDBF7C0133
:100C3000FA01CB0119A2223008F42AE08E010F5DDF
:100C40001F4F822E912CB12CA12CBF01A501940124
:100C50000E941A0DF901CA016A300CF5605DD801D5
:100C60006E938D01232B242B252B79F790E080E0C8
:100C7000109721F0BD01C7010E94F605A1960FB69D
:100C8000F894DEBF0FBECDBFDF91CF911F910F91C2
:100C9000FF90EF90BF90AF909F908F900895695C08
:100CA000DECF2F923F924F925F926F927F928F9200
:100CB0009F92AF92BF92CF92DF92EF92FF921F93DB
:100CC000CF93DF93EC016A017B01722EAB01960199
:100CD000CB01B6010E94010D64E271E0811126C0D2
:100CE00046015701E894B7F82FEF3FEF4FE75FE772
:100CF000C501B4010E94010D81110CC02FEF3FEF1F
:100D00004FE75FE7C501B4010E94370B68E271E06D
:100D1000181664F02FEF3FEF4FE75FE4C701B6010D
:100D20000E948F0C1816B4F46CE271E0CE01DF91D2
:100D3000CF911F91FF90EF90DF90CF90BF90AF9039
:100D40009F908F907F906F905F904F903F902F90EB
:100D50000C94F6052FEF3FEF4FE75FECC701B601AC
:100D60000E94370B87FDE0CF20E030E0A901C701EA
:100D7000B6010E94370B312C212C87FF0DC0E88172
:100D8000F9810190F081E02D6DE2CE0109951C0101
:100D9000F7FAF094F7F8F09410E060E070E080E08B
:100DA0009FE3711641F020E030E040E251E40E9400
:100DB0003C0B1F5FF6CFA70196010E94CB0A2B01C7
:100DC0003C010E94AE0B4B015C012AE0BC01A40176
:100DD000CE010E9405067C01E20CF31C1123E1F117
:100DE000C501B4010E94DD0B9B01AC01C301B2013E
:100DF0000E94CA0A4B015C01E881F9810190F081EF
:100E0000E02D6EE2CE010995E80EF91E115020F199
:100E100020E030E040E251E4C501B4010E94940CAE
:100E20002B013C010E94AE0B4B01B12CA12C2AE0FE
:100E3000B501A401CE010E940506E80EF91EC50108
:100E4000B4010E94DD0B9B01AC01C301B2010E9401
:100E5000CA0A4B015C01DACFC701DF91CF911F9124
:100E6000FF90EF90DF90CF90BF90AF909F908F90CA
:100E70007F906F905F904F903F902F9008951F92BA
:100E80000F920FB60F9211242F933F934F935F93BE
:100E90006F937F938F939F93AF93BF93EF93FF9342
:100EA00081E791E00E944201FF91EF91BF91AF91E4
:100EB0009F918F917F916F915F914F913F912F9172
:100EC0000F900FBE0F901F9018951F920F920FB6A4
:100ED0000F9211242F938F939F93EF93FF93E091A1
:100EE0008101F09182018081E0918701F091880178
:100EF00082FD1BC0908180918A018F5F8F7320914A
:100F00008B01821741F0E0918A01F0E0EF58FE4F2B
:100F1000958F80938A01FF91EF919F918F912F91EF
:100F20000F900FBE0F901F9018958081F4CF1F92E5
:100F30000F920FB60F9211242F933F938F939F938D
:100F4000AF93BF938091650190916601A091670175
:100F5000B09168013091600123E0230F2D3758F5DF
:100F60000196A11DB11D20936001809365019093AE
:100F70006601A0936701B09368018091610190912F
:100F80006201A0916301B09164010196A11DB11DA0
:100F90008093610190936201A0936301B093640117
:100FA000BF91AF919F918F913F912F910F900FBE65
:100FB0000F901F90189526E8230F0296A11DB11DD2
:100FC000D2CFE1E7F1E01382128288EE93E0A0E055
:100FD000B0E084839583A683B7838AE091E0918310
:100FE000808385EC90E09587848784EC90E09787F8
:100FF000868780EC90E0918B808B81EC90E0938BE6
:10100000828B82EC90E0958B848B86EC90E0978BC2
:10101000868B118E128E138E148E60E088E00E94F3
:101020001D02E6EDF0E0E491AAE3B2E0EC93E2EC1D
:10103000F0E0E491F0E0EE0FFF1FE055FF4F8591E7
:10104000949112969C938E9311971B961C921B97CA
:101050001D961C921D971C961C921C971A961C920A
:101060001A9719961C92199718961C92189717960A
:101070001C92179716961C92169715961C92159708
:1010800014961C92149713961C921397E6E2F2E0C2
:10109000B783A68314821582108289E0818381E060
:1010A00082838383138A128AEEE0F2E01382128233
:1010B0008CE191E0918380838CE084838FEF858342
:1010C0008BE0868385E0878384E0808783E0818767
:1010D00082E082871386148615861686178681E03D
:1010E0000C944A05CF93DF93CDB7DEB761970FB667
:1010F000F894DEBF0FBECDBF789484B5826084BD06
:1011000084B5816084BD85B5826085BD85B581600B
:1011100085BD80916E00816080936E001092810089
:101120008091810082608093810080918100816044
:101130008093810080918000816080938000809105
:10114000B10084608093B1008091B0008160809391
:10115000B00080917A00846080937A0080917A0058
:10116000826080937A0080917A00816080937A0017
:1011700080917A00806880937A001092C100E0919B
:101180002C02F0912D021386158614861286118684
:1011900010861782168215821482138210922A02F8
:1011A00010922B0201E0BE016F5F7F4F80912C02F5
:1011B00090912D020E942E04882309F468C067E0F4
:1011C000CE0101960E94A60298858913ECCF8091EA
:1011D0002602811128C080912C0290912D020E943C
:1011E0006303BE016F5F7F4F80912C0290912D02AF
:1011F0000E94440340E064EB80912C0290912D0208
:101200000E94100380912C0290912D020E94BD0239
:10121000182F80912C0290912D020E9463031111CE
:1012200002C000932602109127028981803109F4BF
:10123000ADC1CE0101960E94E7038117C0F48091F1
:1012400027028093270280912A028F5F80932A02CF
:101250008981883231F0A8F4803119F0823209F0A6
:10126000A2CF80912B028F5F80932B029CCF89812C
:10127000803111F48CE0E5CFCE0101960E94E703A6
:10128000E0CF8B3371F3823409F08DCFEACF0E9427
:101290009C0082E00E944A050E949C0000E010E051
:1012A00080912C0290912D020E94630340E06CEC2F
:1012B00080912C0290912D020E94100340912602F1
:1012C00064E480912C0290912D020E941003809181
:1012D0002802882309F442C0E0912702E9506EEE0B
:1012E00072E0E33038F4F0E0EE0FFF1FE050FF4F04
:1012F0006081718180912902882309F4DEC0809188
:1013000026028111DAC08FB7F89480906501909021
:101310006601A0906701B09068018FBF6B01770FE5
:10132000EE08FF0880912C0290912D020E94BD02D0
:101330008130A1F02FB7F8948091650190916601FA
:10134000A0916701B09168012FBF8C199D09AE096A
:10135000BF0988159905AA05BB0520F3E0912C0269
:10136000F0912D021386158614861286118610863A
:1013700017821682158214821382BE01665F7F4F28
:1013800080912C0290912D020E942E0481119CC00C
:10139000C12CD12C6EEFE62E62ECF62EC0926D01C0
:1013A000D0926E01E0926F01F092700126E636E66F
:1013B00046EE5FE3C701B6010E94940C20E030E0E6
:1013C00040E052E40E94CB0A6093690170936A0185
:1013D00080936B0190936C0122E0B701A60181E735
:1013E00091E00E94510660E371E081E791E00E9484
:1013F000F6054091690150916A0160916B0170910D
:101400006C0122E081E791E00E94510665E371E002
:1014100081E791E00E94F60568E371E081E791E0E1
:101420000E94F60568EE73E080E090E00E9473028F
:10143000E1E0809121028111E0E0E195F0E0E25FDE
:10144000FD4F848980680E9444056BE371E08EE063
:1014500092E00E94F60540916D0150916E016091FD
:101460006F017091700122E08EE092E00E945106BF
:1014700063E371E08EE092E00E94F6056CE471E0B7
:101480008EE092E00E94F6054091690150916A0158
:1014900060916B0170916C0122E08EE092E00E94FD
:1014A00051060115110509F4FBCE0E942E01882377
:1014B00009F4F6CE0E940000F3CE072E000C880B34
:1014C000990B0E9473024ACF67E0CE010A960E94F0
:1014D000A602998989135CCF80912C0290912D02EC
:1014E0000E946303882309F453CFBE016F5F7F4FCF
:1014F000CE010A960E949B03882309F449CF68E035
:10150000CE0101960E94A6029985891341CF6A8176
:1015100070E0762F6627770F770F770F298148E0E5
:10152000249F90011124262B372B8A858031D1F4FA
:10153000688570E08F81AB01481B5109CA019695FF
:10154000982F8827979587950E94060DCB01409785
:10155000B90153E0660F771F5A95E1F760789C0157
:10156000260F371F213854EE35070CF411CFB9017F
:10157000330F880B990B0E94DF0B20E030E040E036
:101580005CE30E94940C6B017C0108CF1D3008F0D5
:1015900056CE70CE5058BB27AA270E94E20A0C9460
:1015A000550C0E94470C38F00E944E0C20F039F484
:1015B0009F3F19F426F40C94440C0EF4E095E7FBDD
:1015C0000C943E0CE92F0E94660C58F3BA17620780
:1015D00073078407950720F079F4A6F50C94880C1E
:1015E0000EF4E0950B2EBA2FA02D0B01B90190013E
:1015F0000C01CA01A0011124FF27591B99F0593F82
:1016000050F4503E68F11A16F040A22F232F342FC9
:101610004427585FF3CF469537952795A795F04017
:101620005395C9F77EF41F16BA0B620B730B840B2C
:10163000BAF09150A1F0FF0FBB1F661F771F881FE4
:10164000C2F70EC0BA0F621F731F841F48F487953C
:1016500077956795B795F7959E3F08F0B0CF93952E
:10166000880F08F09927EE0F9795879508950E94A7
:101670001A0C08F481E008950E94500B0C94550C4C
:101680000E944E0C58F00E94470C40F029F45F3F36
:1016900029F00C943E0C51110C94890C0C94440CC0
:1016A0000E94660C68F39923B1F3552391F3951BBF
:1016B000550BBB27AA2762177307840738F09F5F73
:1016C0005F4F220F331F441FAA1FA9F335D00E2EE0
:1016D0003AF0E0E832D091505040E695001CCAF74D
:1016E0002BD0FE2F29D0660F771F881FBB1F261710
:1016F00037074807AB07B0E809F0BB0B802DBF01E7
:10170000FF2793585F4F3AF09E3F510578F00C94B5
:101710003E0C0C94890C5F3FE4F3983ED4F386951D
:1017200077956795B795F7959F5FC9F7880F911DD6
:101730009695879597F90895E1E0660F771F881FC2
:10174000BB1F621773078407BA0720F0621B730B75
:10175000840BBA0BEE1F88F7E09508950E946E0C7B
:1017600088F09F5798F0B92F9927B751B0F0E1F062
:10177000660F771F881F991F1AF0BA95C9F714C012
:10178000B13091F00E94880CB1E008950C94880C5F
:10179000672F782F8827B85F39F0B93FCCF386954B
:1017A00077956795B395D9F73EF4909580957095A8
:1017B00061957F4F8F4F9F4F0895E89409C097FB25
:1017C0003EF490958095709561957F4F8F4F9F4F18
:1017D0009923A9F0F92F96E9BB279395F69587955C
:1017E00077956795B795F111F8CFFAF4BB0F11F41F
:1017F00060FF1BC06F5F7F4F8F4F9F4F16C08823C6
:1018000011F096E911C0772321F09EE8872F762FFB
:1018100005C0662371F096E8862F70E060E02AF03C
:101820009A95660F771F881FDAF7880F9695879528
:1018300097F90895990F0008550FAA0BE0E8FEEFFD
:1018400016161706E807F907C0F012161306E40784
:10185000F50798F0621B730B840B950B39F40A267D
:1018600061F0232B242B252B21F408950A2609F45B
:10187000A140A6958FEF811D811D089597F99F675F
:1018800080E870E060E008959FEF80EC0895002408
:101890000A941616170618060906089500240A94D5
:1018A00012161306140605060895092E0394000C5B
:1018B00011F4882352F0BB0F40F4BF2B11F460FFEA
:1018C00004C06F5F7F4F8F4F9F4F089557FD905813
:1018D000440F551F59F05F3F71F04795880F97FBF4
:1018E000991F61F09F3F79F08795089512161306AE
:1018F0001406551FF2CF4695F1DF08C016161706DD
:101900001806991FF1CF8695710561050894089511
:10191000E894BB2766277727CB0197F908950E94A3
:101920001A0C08F48FEF08950E94A70C0C94550C24
:101930000E94470C38F00E944E0C20F0952311F0C5
:101940000C943E0C0C94440C11240C94890C0E94B1
:10195000660C70F3959FC1F3950F50E0551F629F81
:10196000F001729FBB27F00DB11D639FAA27F00DF8
:10197000B11DAA1F649F6627B00DA11D661F829F1F
:101980002227B00DA11D621F739FB00DA11D621F04
:10199000839FA00D611D221F749F3327A00D611D21
:1019A000231F849F600D211D822F762F6A2F112403
:1019B0009F5750409AF0F1F088234AF0EE0FFF1F36
:1019C000BB1F661F771F881F91505040A9F79E3F8D
:1019D000510580F00C943E0C0C94890C5F3FE4F3AD
:1019E000983ED4F3869577956795B795F795E795E3
:1019F0009F5FC1F7FE2B880F911D9695879597F9EC
:101A000008950E941A0C880B990B089597FB072ED6
:101A100016F4009407D077FD09D00E943C0D07FC16
:101A200005D03EF4909581959F4F089570956195EE
:101A30007F4F0895A1E21A2EAA1BBB1BFD010DC00A
:101A4000AA1FBB1FEE1FFF1FA217B307E407F5076E
:101A500020F0A21BB30BE40BF50B661F771F881F4A
:101A6000991F1A9469F760957095809590959B01E0
:101A7000AC01BD01CF010895AA1BBB1B51E107C0FA
:101A8000AA1FBB1FA617B70710F0A61BB70B881F0E
:101A9000991F5A95A9F780959095BC01CD0108959D
:101AA000EE0FFF1F0590F491E02D0994F894FFCFFD
:101AB0005E00BC007701000000006401C400F1007A
:101AC000B10122010001140100000000F005C40072
:101AD0002B042A046E616E00696E66006F766600E4
:101AE00020432020002046000D0A0054454D505F41
:101AF000494E5F43454C534955533A0054454D5068
:101B00005F494E5F46414852454E484549543A0068
:107E0000112484B714BE81FFF0D085E080938100F7
:107E100082E08093C00088E18093C10086E0809377
:107E2000C20080E18093C4008EE0C9D0259A86E02C
:107E300020E33CEF91E0309385002093840096BBD3
:107E4000B09BFECF1D9AA8958150A9F7CC24DD24C4
:107E500088248394B5E0AB2EA1E19A2EF3E0BF2EE7
:107E6000A2D0813461F49FD0082FAFD0023811F036
:107E7000013811F484E001C083E08DD089C08234E0
:107E800011F484E103C0853419F485E0A6D080C0E4
:107E9000853579F488D0E82EFF2485D0082F10E0AE
:107EA000102F00270E291F29000F111F8ED06801E7
:107EB0006FC0863521F484E090D080E0DECF843638
:107EC00009F040C070D06FD0082F6DD080E0C81688
:107ED00080E7D80618F4F601B7BEE895C0E0D1E017
:107EE00062D089930C17E1F7F0E0CF16F0E7DF06D8
:107EF00018F0F601B7BEE89568D007B600FCFDCFD4
:107F0000A601A0E0B1E02C9130E011968C91119780
:107F100090E0982F8827822B932B1296FA010C0160
:107F200087BEE89511244E5F5F4FF1E0A038BF0790
:107F300051F7F601A7BEE89507B600FCFDCF97BE46
:107F4000E89526C08437B1F42ED02DD0F82E2BD052
:107F50003CD0F601EF2C8F010F5F1F4F84911BD097
:107F6000EA94F801C1F70894C11CD11CFA94CF0C13
:107F7000D11C0EC0853739F428D08EE10CD085E9AC
:107F80000AD08FE07ACF813511F488E018D01DD067
:107F900080E101D065CF982F8091C00085FFFCCF94
:107FA0009093C60008958091C00087FFFCCF809118
:107FB000C00084FD01C0A8958091C6000895E0E648
:107FC000F0E098E1908380830895EDDF803219F02E
:107FD00088E0F5DFFFCF84E1DECF1F93182FE3DFCA
:107FE0001150E9F7F2DF1F91089580E0E8DFEE27F6
:047FF000FF270994CA
:027FFE00040479
:0400000300007E007B
:00000001FF
